:020000040800F2
:10000000FCFF0020892600003D2500003D25000062
:100010003D2500003D2500003D2500003D25000058
:100020003D2500003D2500003D2500003D25000048
:100030003D2500003D2500003D2500003D25000038
:100040003D2500003D2500003D2500003D25000028
:100050003D2500003D2500003D2500003D25000018
:100060003D2500003D2500003D2500003D25000008
:100070003D2500003D2500003D2500003D250000F8
:100080003D2500003D2500003D2500003D250000E8
:100090003D2500003D2500003D2500003D250000D8
:1000A0003D2500003D2500003D2500003D250000C8
:1000B0003D2500003D2500003D2500003D250000B8
:1000C0003D2500003D2500003D2500003D250000A8
:1000D0003D2500003D2500003D2500003D25000098
:1000E0003D2500003D2500003D2500003D25000088
:1000F0003D2500003D2500003D2500003D25000078
:100100003D2500003D2500003D2500003D25000067
:100110003D2500003D2500003D2500003D25000057
:100120003D2500003D2500003D2500003D25000047
:100130003D2500003D2500003D2500003D25000037
:100140003D2500003D2500003D2500003D25000027
:1001500081B000F218010A68C2F3400181F0010188
:10016000C9B2C8B201B0704701480068704700BF0B
:100170006401002083B0CDF800E000F0FF031A090D
:10018000104603F00F02134614E0194A02921FE0D2
:10019000184A02921CE0184A029219E0174A029289
:1001A00016E0174A029213E0164A029210E0164A2D
:1001B00002920DE00028E8D00128E9D00228EAD018
:1001C0000328EBD00428ECD00528EDD00628EED08B
:1001D000012212B29A40ADF8042002980A46BDF8F6
:1001E000041000F04BFDDDF800E003B0704700BFE5
:1001F00000080140000C01400010014000140140C3
:1002000000180140001C01400020014081B000F2B4
:1002100014010A6800F218010968090442EA0101A0
:10022000084601B07047FFFF82B0CDF800E0CFB2C2
:1002300001469846029B4FF000064FF00005C44C63
:10024000A14207D1C34CD4F80090C34C2568C34CDD
:1002500025600BE0C24CA14207D1C24C2068C24CC1
:100260002568BE4C2560814600E0A946BF4CC4F815
:100270000090F4E101F210057C00A4B244F0010406
:10028000A4B22C60019616464F46019A01F214045E
:100290002568C5F3400464B9B44C246844B127B957
:1002A0000320AE4C2468A047E2E1781E0746FFE732
:1002B000ECE700250C6865F38A240C6001F2140455
:1002C000206800BF01F218042468240440EA0404F2
:1002D0002046012B05D101250C6865F349240C60EB
:1002E00004E001250C6865F308240C609F4C256828
:1002F0009146984637460E469D49304600F02EFA04
:1003000068B99A4C24684CB125B90320934C2468F1
:10031000A047ADE16C1E20460546FFE7ECE707EB82
:10032000090506F2100424682C70B8F1010F13D1EE
:100330008E4C216830460568C5F340245CB98B4C6F
:1003400024683CB121B90320844C2468A0478FE184
:10035000491EFFE7EFE712E0844C2168304605684C
:10036000C5F300245CB9814C24683CB121B9032059
:100370007A4C2468A0477BE1491EFFE7EFE777E16D
:1003800001250C6865F38A240C6001250C6865F36F
:10039000CB240C6001F210057C00A4B244F00104EF
:1003A000A4B22C604F4601F214042568C5F3400442
:1003B00064B96E4C246844B127B90320674C2468A3
:1003C000A04755E1781E0746FFE7ECE701F2140469
:1003D000206800BF01F2180424682404204300258B
:1003E0000C6865F38A240C60604C276801F21404E1
:1003F0002568C5F3800464B95C4C246844B127B90E
:100400000320564C2468A04732E1781E0746FFE7D8
:10041000ECE7012B05D101250C6865F349240C603C
:1004200004E001250C6865F308240C60951901F2BD
:10043000100424682C70741C151901F2100424682F
:100440002C70012B14D1494C22680D68C5F340244F
:1004500064B9464C246844B122B903203F4C246857
:10046000A04705E1501E0246FFE7EEE7084613E00D
:100470003E4C22680D68C5F3002464B93B4C2468E7
:1004800044B122B90320354C2468A047F0E0501E47
:100490000246FFE7EEE708460025046865F3CB2433
:1004A0000460E5E001250C6865F38A240C6001F224
:1004B00010057C00A4B244F00104A4B22C604646AE
:1004C000C846894617461D462A49484600F046F95F
:1004D00078B9264C24685CB1B8F1000F04D1032030
:1004E0001E4C2468A047C3E0A8F101008046FFE746
:1004F000EAE70021A8464A46B1463B46A9F1030473
:10050000A14222D2194C25688A4617461E46184930
:10051000384600F023F960B9144C246844B125B979
:1005200003200E4C2468A047A2E0681E0546FFE7A2
:10053000EDE706EB0A0507F2100424682C700AF1B7
:100540000104214633463A46D8E7084C00F014B877
:1005500000540040440100206C010020680100208C
:100560000058004048010020700100204C0100208C
:100570004000030002000300276801930B46164663
:100580004246019906F214042568C5F3800464B953
:10059000394C246844B127B90320384C2468A0475B
:1005A00066E0781E0746FFE7ECE70025346865F350
:1005B0008A243460CD1806F2100424682C70581C6C
:1005C0002D4C23681746024606F214042568C5F32D
:1005D000800464B9284C246844B123B90320274C13
:1005E0002468A04744E0581E0346FFE7ECE7012FCC
:1005F00007D10125346865F349243460104632463A
:1006000021E00125346865F3082434601A4CD4F8DD
:10061000008017460D461A49304600F09FF878B919
:10062000154C24685CB1B8F1000F04D10320134CC1
:100630002468A0471CE0A8F101008046FFE7EAE734
:100640002946324638460D1802F2100424682C70F0
:10065000441C0D1902F2100424682C7008E0B8F153
:10066000010F3FF407AEB8F1020F3FF489AE19E76E
:10067000DDF800E002B070474C0100206801002066
:100680000100030001490860704700BF98812142C2
:1006900001490860704700BFA481224201490860F7
:1006A000704700BFA081224201490860704700BF27
:1006B0008C01224201490860704700BF9401214229
:1006C00001490860704700BF9C81214201490860D0
:1006D000704700BFA881224201490860704700BFEF
:1006E000B481224201490860704700BF880122425C
:1006F00001490860704700BF90012142014908602C
:10070000704700BFA801224201490860704700BF3E
:100710008001214201490860704700BFB0012242B8
:1007200001490860704700BFAC01224201490860DE
:10073000704700BF9881214201490860704700BF9F
:100740009481224201490860704700BF988122428B
:1007500001490860704700BF9C81214281B0CDF8FB
:1007600000E00B46FFF752FD00EA03029A4240F216
:10077000000200D10122D0B2DDF800E001B07047E4
:1007800081B0CDF800E008B413460A46C1B204486F
:10079000FFF74AFD01B0DDF800E001B0704700BF8F
:1007A0000054004081B0CDF800E04FF0000219493C
:1007B000884207D118490B6818490A6818490A6025
:1007C0001C460BE01749884207D117490B681749A7
:1007D0000A6813490A601C4600E0144614490C607C
:1007E00003461846FFF7B4FC70B91149096851B1C6
:1007F0002CB905200A4C2468A047002005E0611EA2
:1008000008460446FFE7ECE70120DDF800E001B010
:10081000704700BF00540040440100206C010020DC
:1008200068010020005800404801002070010020AD
:100830004C01002001490860704700BFA801224216
:1008400001490860704700BFB881224281B0CDF8ED
:1008500000E008B413460A46C1B20448FFF7E4FCBE
:1008600001B0DDF800E001B0704700BF0058004063
:1008700001490860704700BFAC012242014908608D
:10088000704700BFB081224201490860704700BF35
:10089000B081224201490860704700BFB001224286
:1008A00081B0194900EA0101084600220EE0042047
:1008B00022E0082020E010201EE020201CE0402044
:1008C0001AE0802018E040F2001015E00F4988423D
:1008D000EDD00F498842ECD00E498842EBD00E494A
:1008E0008842EAD00D498842E9D00D498842E8D0D3
:1008F0000C498842E7D010460B49096841EA0002DA
:1009000009490A6001B0704700FCFFFF0008014080
:10091000000C01400010014000140140001801408B
:10092000001C0140002001401810024081B0CDF8A9
:1009300000E0012252B23E490A6000F268010B68F1
:100940006FF0006103EA0102144603F00061C90E72
:100950000B4602F00041B1F1004F02D135490A685F
:1009600001E035490A6804F47021090C0E464FF67F
:10097000FF7104EA01010D4604F44011B1F5401F76
:100980000DD16FF0706102EA01010E462A490A6832
:100990006FF070610A4028490A60324616E004F49C
:1009A0008011B1F5801F09D14FF00301B140C94357
:1009B00002EA010141F070610A4607E0610D090198
:1009C00005FA01F1C9430A4042F070622BB1610D92
:1009D000090105FA01F10A43FFE704F00041B1F112
:1009E000004F02D113490A6001E013490A6040F246
:1009F000000A81464FEA8A0109EB01010968B1F159
:100A0000FF3F10D009F134014FEA8A03C918096881
:100A10000A4609EB0301096808461146FFF7AAFBDD
:100A20000AF1010AE6E7DDF800E001B0704700BF17
:100A3000000342421C0001400400014082B0CDF896
:100A400000E0034619460191FFF78EFB40F2E831C2
:100A500000FB01F201990A601F490978C1F30311F3
:100A6000C8B21E4909180878C0B21A1D1968C140D9
:100A7000116019490988C1F3022188B21749091880
:100A80000878C0B203F20802191D0968C14011605C
:100A900011490988C1F3C22188B2104909180878A0
:100AA000C0B203F20C02191D0968C14011600A4965
:100AB0000988C1F3813188B2094909180978C8B297
:100AC00003F2100203F20C010968B1FBF0F11160AE
:100AD000DDF800E002B0704704100240FC2900007D
:100AE000242A000082B0CDF800E0029E4FF00005FD
:100AF000564CA04206D1564C2768564C2568564C99
:100B000025600AE0554CA04206D1554C2768554C4B
:100B10002568514C256000E02F46534C276000F2B9
:100B200010054C00A4B22C60B946074690463546E5
:100B30001E464E493846FFF711FE88B94A4C2468D4
:100B40006CB1B9F1000F06D10420434C2468A047D2
:100B50004FF6FF7076E0A9F101008146FFE7E8E774
:100B60000020019729463746019E7C1EA04226D2CE
:100B700006F2100508EB000424782C603A4CD4F8F7
:100B8000009082460D463A493046FFF7E7FD88B9A6
:100B9000354C24686CB1B9F1000F06D104202E4CFD
:100BA0002468A0474FF6FF704CE0A9F10100814690
:100BB000FFE7E8E70AF1010420462946D5E706F2F7
:100BC000100508EB000424782C60274C27680D469C
:100BD00028493046FFF7C2FD70B9234C246854B150
:100BE00037B904201C4C2468A0474FF6FF7029E059
:100BF000781E0746FFE7EBE7012D05D10125346894
:100C000065F3492434601CE00125346865F3082449
:100C10003460154C2768354617492846FFF79EFD76
:100C200078B9114C24685CB137B904200A4C2468A7
:100C3000A0474FF6FF7005E07C1E20460746FFE701
:100C4000EAE70020DDF800E002B070470054004001
:100C5000440100206C010020680100200058004081
:100C600048010020700100204C0100208200070094
:100C700080000700840007000100030081B0CDF868
:100C800000E08CB21546774B00EA03031E46184677
:100C9000FFF706FEB4F1FF0F0CD1734B9D4203D159
:100CA0004FF033333360D9E0422D03D14FF044335A
:100CB0003360D3E04FF6FF739C4214D16A4B9D42E0
:100CC00007D14FF033333360341D4FF0333323609B
:100CD000C4E0422D07D14FF044333360341D4FF050
:100CE00044332360BAE00021002005F001030BB17A
:100CF00000211DE005F0020333B105F4C0730BB110
:100D0000082100E0042113E005F0040333B105F0ED
:100D100020030BB1042100E0002109E005F00803E5
:100D200033B105F020030BB10C2100E00821FFE7EF
:100D30004E4B05EA03030BB1032009E005F40073F1
:100D40000BB1022004E005F480630BB10120FFE742
:100D500005F00C030BB10143FFE704F0FF039BB266
:100D6000002B3BD0376800201FFA84F832462E460D
:100D700008282CD24FF0010303FA00F408EA040318
:100D8000A34222D185004FF00F03AB40DB4307EABB
:100D9000030401FA05F344EA03031D4606F48173D4
:100DA000B3F5817F05D102F214044FF001038340B3
:100DB000236006F08203822B05D102F210044FF06B
:100DC0000103834023602F46FFE7401CD0E71760F4
:100DD0001FFA88F00F463146164602E00F462946B4
:100DE000A0B2B0F1FF0F39D9331DD3F80080002233
:100DF000082A30D202F208044FF0010303FA04F487
:100E000000EA0403A34224D195004FF00F03AB4046
:100E1000DB4308EA030807FA05F348EA030801F48C
:100E20008173B3F5817F07D106F2140502F208043D
:100E30004FF00103A3402B6001F08203822B07D106
:100E400006F2100502F208044FF00103A3402B60E4
:100E5000FFE7521CCCE7331DC3F80080DDF800E04B
:100E600001B0704700FCFFFF1400080000080800F4
:100E700088B0CDF800E00E46554B98420DD10124C4
:100E800064B2544B1C60544C544B1C60544C554B36
:100E90001C60554C554B1C600FE0554B98420CD1D3
:100EA000012464B2534B1C60534C4C4B1C60534C9C
:100EB0004C4B1C60524C4D4B1C60019602901046EE
:100EC000FFF734FD0298019E031D1B689CB26FF072
:100ED0003F0304EA03039DB203AB01901846FFF7FA
:100EE000ADFD0198059F059C464BB4FBF3F399B209
:100EF0009BB245EA0304A4B2031D1C6000240368EE
:100F000064F30003036000223F4B9E4212D873003B
:100F1000B7FBF3F4A4B2042C02D204231C46FFE76F
:100F200042EA04039AB200F220044B1C9BB22360F5
:100F300091B23FE0032306FB03F4B7FBF4F31FFA7F
:100F400083F8192306FB03F5B7FBF5F31FFA83F9C2
:100F500008FB04F409FB05F33C1BFB1A9C4205D279
:100F600003237343B7FBF3F4A4B206E019237343DE
:100F7000B7FBF3F4A4B244F4804440F6FF7304EAF0
:100F8000030313B944F00104FFE744F400439BB2A8
:100F90001A4392B200F2200540F22C1301FB03F435
:100FA000A4B240F2E833B4FBF3F39BB25B1C9BB2F8
:100FB0002B6091B200F21C0319600023036001242E
:100FC000036864F300030360DDF800E008B07047D5
:100FD00000540040D4034242611600007401002016
:100FE0008107000078010020B11500007C0100207D
:100FF00000580040D8034242BD1600004D080000D2
:101000008914000040420F00A086010089B0CDF88D
:1010100000E0834698B28C46BDF824100A9E04ACCA
:10102000ADF80410ADF808002046FFF707FDBDF845
:101030000800BDF80410644CA34512D101256DB21F
:10104000624C2560624D634C2560634D634C2560A6
:10105000634D644C2560644D644C2560079C03948B
:1010600056E0634CA34512D101256DB2614C256059
:10107000614D584C2560614D584C2560604D594C70
:101080002560604D594C2560069C039440E05E4C01
:10109000A34512D101256DB25C4C25605C4D4D4CD1
:1010A00025605C4D4D4C25605B4D4E4C25605B4D85
:1010B0004E4C2560069C03942AE0594CA34512D15E
:1010C00001256DB2574C2560574D424C2560574D58
:1010D000424C2560564D434C2560564D434C25608F
:1010E000069C039414E0544CA34511D101256DB224
:1010F000524C2560524D374C2560524D374C25607F
:10110000514D384C2560514D384C2560069C039458
:10111000ADF80410ADF808003046FFF707FCBDF845
:101120000800BDF804100BF1100500242C600BF131
:1011300010052C680C432C600BF10C0500242C606E
:1011400018B140F4806080B2FFE70BF10C052C6809
:1011500004432C600BF10C060125346865F34D3413
:1011600034600BF10C060125346865F3C304346068
:101170000BF10C060125346865F3820434600BF131
:10118000140500242C60039D192465434FEA8C0448
:10119000B5FBF4F76424B7FBF4F4260135096424A5
:1011A0006C433C1B240104F232056424B5FBF4F4C7
:1011B00004F00F0446EA04040BF10805A4B22C6005
:1011C000DDF800E009B070470038014038034242C2
:1011D0006D14000080010020D5160000840100205D
:1011E000A913000088010020391400008C010020A0
:1011F00000440040C403424251140000C1130000E7
:1012000009140000F113000000480040C8034242E6
:10121000AD14000021140000D91300009113000048
:10122000004C0040CC0342423515000081150000FF
:10123000691500005115000000500040D0034242E3
:101240001915000099150000ED150000D5150000D6
:1012500081B0ADF800100146BDF800000B68C3F383
:10126000C01202B9FAE70A1D106001B07047FFFF13
:1012700081B00168C1F3401001B0704781B00268CD
:10128000C2F3401101B9FAE7011D096888B201B043
:101290007047FFFF82B0CDF800E040F20004ADF8E7
:1012A0000440044C2468A047BDF90400DDF800E0C8
:1012B00002B070479801002083B0CDF800E00346EB
:1012C0004FF0000026498B4206D126490C6826497A
:1012D0000A6826490A600BE025498B4207D1254957
:1012E000086825490A6821490A60044600E0044666
:1012F00022490C60019402931846FFF753FA029BAF
:10130000019C10B94FF6FF7025E00122196862F3C5
:101310000821196003F214010A68C2F3402111B1D7
:101320004FF6FF7017E025461C4615492046FFF78B
:1013300015FA78B91149096859B135B906200B4C2D
:101340002468A0474FF6FF7005E0691E0846054671
:10135000FFE7EAE70020DDF800E003B0704700BFD8
:1013600000540040440100206C010020680100206E
:101370000058004048010020700100204C0100206E
:101380000100030081B00168C1F3801001B0704713
:1013900081B0CDF800E00348FFF7F4FFDDF800E08E
:1013A00001B070470048004081B0CDF800E003482C
:1013B000FFF75EFFDDF800E001B070470038014044
:1013C00081B0CDF800E00348FFF758FFDDF800E0FA
:1013D00001B070470044004081B0CDF800E0034800
:1013E000FFF746FFDDF800E001B07047004800401D
:1013F00081B0CDF800E00348FFF7C4FFDDF800E05E
:1014000001B070470044004081B0CDF800E00348CF
:10141000FFF72EFFDDF800E001B070470044004008
:1014200081B0CDF800E00348FFF728FFDDF800E0C9
:1014300001B070470048004081B0CDF800E003489B
:10144000FFF7A0FFDDF800E001B070470038014071
:1014500081B0CDF800E081B20348FFF7F9FEDDF876
:1014600000E001B0704700BF0044004081B0CDF8FB
:1014700000E081B20348FFF7EBFEDDF800E001B0C9
:10148000704700BF0038014081B0CDF800E008B4DB
:1014900013460A46C1B20448FFF724FB01B0DDF849
:1014A00000E001B0704700BF0058004081B0CDF8A7
:1014B00000E081B20348FFF7CBFEDDF800E001B0A9
:1014C000704700BF0048004082B0CDF800E001A99D
:1014D000087000F079FA01AA0E4909780023C8B211
:1014E0001146012200F0AAFC00F0C6FD0DF1050234
:1014F000084909780123C8B211460122FFF7CAFE44
:1015000000F0BAFD0DF105010978C8B2DDF800E080
:1015100002B070475A01002081B0CDF800E081B2DE
:101520000348FFF795FEDDF800E001B0704700BF0B
:101530000050004081B0CDF800E081B20348FFF7D1
:1015400087FEDDF800E001B0704700BF004C0040AE
:1015500081B0CDF800E00348FFF714FFDDF800E0AC
:1015600001B07047004C004081B0CDF800E0034866
:10157000FFF77EFEDDF800E001B07047004C004050
:1015800081B0CDF800E00348FFF778FEDDF800E019
:1015900001B07047004C004081B0CDF800E0034836
:1015A000FFF76CFEDDF800E001B07047005000402E
:1015B00081B0CDF800E008B413460A46C1B2044831
:1015C000FFF790FA01B0DDF800E001B0704700BF0E
:1015D0000054004081B0CDF800E00348FFF7D2FE90
:1015E000DDF800E001B070470050004081B0CDF858
:1015F00000E00348FFF73CFEDDF800E001B0704773
:101600000050004081B0CDF800E0044A89B2FFF7F5
:1016100035FBDDF800E001B0704700BF14000800A2
:1016200081B0CDF800E04FF0420289B2FFF726FB0F
:10163000DDF800E001B0704781B0CDF800E0019D19
:101640002C4610B408B493B28AB201460348FFF79F
:10165000DDFC02B0DDF800E001B07047004800405A
:1016600081B0CDF800E00348FFF726FEDDF800E08A
:1016700001B070470054004081B0CDF800E00A4648
:1016800001460348FFF7F4FBDDF800E001B07047C6
:101690000054004081B0CDF800E0019D2C4610B40C
:1016A00008B493B28AB201460348FFF7AFFC02B018
:1016B000DDF800E001B070470038014081B0CDF89E
:1016C00000E00348FFF7F8FDDDF800E001B07047E7
:1016D0000058004081B0CDF800E00348FFF7CEFD90
:1016E000DDF800E001B070470038014081B0CDF86E
:1016F00000E0019D2C4610B408B493B28AB20146B2
:101700000348FFF783FC02B0DDF800E001B070474A
:101710000044004081B0CDF800E0094902B440F235
:10172000000340F2000240F20001FFF7DFFF01B0CA
:10173000044A05490A600020DDF800E001B0704766
:1017400058280000511400006001002081B0CDF83D
:1017500000E00178CCB2A0B2034C2468A04700207E
:10176000DDF800E001B07047600100200268064922
:101770000A60011D0A6805490A6000F208010A684A
:1017800003490A60704700BF9001002094010020C7
:101790009801002081B02DE9FA414FEA02244FEA76
:1017A00042052D0E04D1002C18BF4FF000006CE054
:1017B00044F00044FF2D5FD04FEA9404002A48BF54
:1017C00064424FEA00214FEA40031B0E05D1002975
:1017D00014BF4FF00000104657E041F00041FF2BCE
:1017E0004BD04FEA9101002848BF49425E1B41BFE0
:1017F0000F4621463C46764248BF2B46192E47BF2E
:1018000044FA06F7C9194FF0000803E0C6F11C07B7
:1018100004FA07F8002904BF4FF0000035E046BF86
:1018200049424FF001074FF00007A3F101034900BF
:10183000FBD511F080040DD001F0200548EA050821
:10184000803128BF5B1C01F0400458EA040808BF3F
:1018500021F480719B1CDCBF4FF0000015E0FF2BD2
:101860000DD221F0FF014FEA41014FEA512040EA39
:10187000C35040EAC77008E010464FEAD0774FEAFD
:10188000C777FF204FEAC0503843BDE8FA4101B0A6
:101890007047FFFF81B0002808BF19E006B554BFAC
:1018A0000146D0F100014FF09E0202D4521E4900C1
:1018B000FCD580312CBF521C49004FEA512141EA2E
:1018C000C25100284CBF41F000400846BDE8064028
:1018D00001B0704781B0FAB590EA02064CBF4FF0F4
:1018E00000464FF00006010243001B0E12BF41F0FC
:1018F00000414FF000003BE0FF2B35D05FEA0224AF
:101900005FEA42055FEA156511BF44F000444FF0FD
:10191000FF4030432CE0FF2D26D05B1B002020270A
:1019200064084908A14240EB000028BF091B7F1E44
:1019300004D0002918BF4900F4D1B84010F0004F7E
:1019400004BF4000B3F1010380302CBF5B1C40009A
:101950007F33DCBF4FF000000AE0FF2B04D2400AC7
:1019600040EAC350304303E0FF27FF0556EA070073
:10197000BDE8FA4001B0704781B00A4681B200204C
:101980008DB21146052805D20B1820221A70401C72
:10199000C0B2F7E70B1800221A70401EC0B20C1834
:1019A0000A23B5FBF3F203FB125292B230322270DB
:1019B0000A22B5FBF2F292B295B202B902E0401EE1
:1019C000C0B2ECE701B0704782B0CDF800E040F261
:1019D0000004ADF80440064C2468A047BDF904108B
:1019E00041EA000000B2DDF800E002B0704700BF3D
:1019F0009001002084B0CDF800E0C2B202A90391AA
:101A00008DF80420D0B2FFF75FFD9DF80420039904
:101A1000087002A9491C0391511CC8B2FFF754FD7C
:101A20000399087002AB1978C8B2020292B2591C2D
:101A3000097842EA010108B2DDF800E004B070471D
:101A400000F230011C310A6801490A60704700BF8A
:101A50009C01002081B0CDF800E0094902B440F2B9
:101A6000000340F2000240F20001FFF7E5FD01B083
:101A7000044A05490A600020DDF800E001B0704723
:101A800030290000AD1400006001002081B0CDF8C5
:101A900000E0A9E0012905D140F210016548FFF7F7
:101AA000BFFD04E040F210016248FFF7ABFDBBE070
:101AB000012905D140F204015F48FFF7B1FD04E0C0
:101AC00040F204015C48FFF79DFDADE0012905D11E
:101AD00042F200015948FFF7A3FD04E042F2000181
:101AE0005648FFF78FFD9FE0012905D140F20041E4
:101AF0005148FFF795FD04E040F200414E48FFF7E2
:101B000081FD91E0012905D140F600014A48FFF727
:101B100087FD04E040F600014748FFF773FD83E0CE
:101B2000012905D141F200014348FFF779FD04E0A6
:101B300041F200014048FFF765FD75E0012905D13C
:101B400040F201013B48FFF76BFD04E040F2010168
:101B50003848FFF757FD67E0012905D140F2004101
:101B60003648FFF75DFD04E040F200413348FFF7DF
:101B700049FD59E0012905D140F200212F48FFF726
:101B80004FFD04E040F200212C48FFF73BFD4BE005
:101B9000012905D140F200112848FFF741FD04E07A
:101BA00040F200112548FFF72DFD3DE0012905D148
:101BB00040F240012248FFF733FD04E040F24001CB
:101BC0001F48FFF71FFD2FE0012905D140F28001DA
:101BD0001B48FFF725FD04E040F280011848FFF79D
:101BE00011FD21E0012020E000283FF453AF01283F
:101BF0003FF45EAF02283FF469AF03283FF474AFAF
:101C000004283FF47FAF05283FF48AAF06283FF44D
:101C100095AF0728A0D00828ACD00928B8D00A284A
:101C2000C4D00B28D0D0DDE70020DDF800E001B003
:101C3000704700BF0008014000100140001401403F
:101C4000000C014081B0CDF800E0A9E0012905D1E8
:101C500040F220016548FFF7E3FC04E040F2200178
:101C60006248FFF7CFFCBBE0012905D140F2080133
:101C70005F48FFF7D5FC04E040F208015C48FFF73D
:101C8000C1FCADE0012905D144F200015948FFF73C
:101C9000C7FC04E044F200015648FFF7B3FC9FE0A4
:101CA000012905D140F200415148FFF7B9FC04E099
:101CB00040F200414E48FFF7A5FC91E0012905D113
:101CC00040F600014A48FFF7ABFC04E040F6000193
:101CD0004748FFF797FC83E0012905D141F2000155
:101CE0004348FFF79DFC04E041F200014048FFF744
:101CF00089FC75E0012905D141F200013D48FFF75B
:101D00008FFC04E041F200013A48FFF77BFC67E0FA
:101D1000012905D140F600013648FFF781FC04E0B7
:101D200040F600013348FFF76DFC59E0012905D169
:101D300040F240012F48FFF773FC04E040F24001FD
:101D40002C48FFF75FFC4BE0012905D140F2200150
:101D50002848FFF765FC04E040F220012548FFF722
:101D600051FC3DE0012905D140F240012248FFF736
:101D700057FC04E040F240011F48FFF743FC2FE00E
:101D8000012905D140F280011B48FFF749FC04E01E
:101D900040F280011848FFF735FC21E0012020E0E7
:101DA00000283FF453AF01283FF45EAF02283FF410
:101DB00069AF03283FF474AF04283FF47FAF0528D0
:101DC0003FF48AAF06283FF495AF0728A0D0082833
:101DD000ACD00928B8D00A28C4D00B28D0D0DDE771
:101DE0000020DDF800E001B0704700BF00080140AE
:101DF0000010014000140140000C014081B0CDF8FA
:101E000000E0016808460449FFF736FC0020DDF8D1
:101E100000E001B0704700BFC428000081B0CDF8D9
:101E200000E0016808460449FFF726FC0020DDF8C1
:101E300000E001B0704700BFC428000082B0CDF8B8
:101E400000E040F20004ADF80440054C2468A047CF
:101E5000BDF90440044320B2DDF800E002B0704751
:101E60009401002081B0CDF800E0094902B440F2AD
:101E7000000340F2000240F20001FFF737FC01B01E
:101E8000044A05490A600020DDF800E001B070470F
:101E900058280000511400006001002081B0CDF8E6
:101EA00000E0094902B440F2000340F2000240F2AF
:101EB0000001FFF7EFFB01B0044A05490A6000206A
:101EC000DDF800E001B07047EC2700006D14000061
:101ED0006001002081B0CDF800E08B4609E0584653
:101EE000FFF78CFF0AE05846FFF798FF06E0012055
:101EF00004E00028F3D00128F5D0F8E7DDF800E091
:101F000001B0704782B0CDF800E001AA1070521CF9
:101F10001170FFF759FD01AB054A127819460123EC
:101F2000D0B20222FFF78AFFDDF800E002B070476E
:101F30005A01002081B0CDF800E00E46002183B2A6
:101F4000002805DA0121404280B280B28FB201E060
:101F500098B28FB23146FFF70FFD06213446B8B272
:101F6000002908D963184A1E92B2A21812781A7072
:101F7000491E89B2F4E72022227070B1002081B29C
:101F8000204642181278202A02D1491C89B2F8E76B
:101F90004A1E92B283182D221A70DDF800E001B0BB
:101FA0007047FFFF84B0CDF800E0019002910392EA
:101FB0004320FFF71FFD019B18804520FFF71AFD06
:101FC000029B18804720FFF715FD039B1880DDF862
:101FD00000E004B07047FFFF81B0CDF800E05FFA89
:101FE00081F95FFA82FA0FE05FFA8AF15FFA89F00D
:101FF000FFF74CFD0DE05FFA8AF15FFA89F0FFF719
:1020000021FE06E0012004E00028EDD00128F2D0F6
:10201000F8E7DDF800E001B07047FFFF83B0CDF8CE
:1020200000E001A802904120FFF74EFA02990870E3
:1020300001A8401C02904220FFF746FA029908705E
:1020400001AA1078010209B2501C007841EA000090
:1020500000B2FFF71FFC054AFFF73CFC044AFFF7FC
:1020600099FB0046DDF800E003B070470000AA438A
:10207000F6281242A086010044F67F77C0F21207CC
:102080007F1EFDD100BF00BF00BF00BF00BF704773
:1020900041F6FF27C0F2B7077F1EFDD100BF00BF8A
:1020A00000BF00BF00BF70474DF2BF47C0F201073D
:1020B0007F1EFDD100BF00BF00BF00BF00BF704743
:1020C00083B0CDF800E0024610460D228DF80820BE
:1020D0000A228DF809201FE0FFF738FB23E0027881
:1020E0002AB10190FFF732FB0198401CF7E71AE094
:1020F00002782AB10190FFF729FB0198401CF7E70D
:1021000002AA1046FFF722FB0DF109021046FFF765
:102110001DFB08E0062007E00029DDD00129DED004
:102120000229E5D0F6E70020DDF800E003B07047B3
:1021300081B006B54FEA40024FEA12627F3A44BFCF
:102140004FF0000011E0D2F11F0209D94FEA00213F
:1021500041F00041D14000284CBF4842084604E00D
:1021600000284FF0004058BF401EBDE8064001B0B7
:102170007047FFFF84B0CDF800E001900291039218
:102180003B20FFF737FC019B18803D20FFF732FC16
:10219000029B18803F20FFF72DFC039B1880DDF881
:1021A00000E004B07047FFFF81B0CDF800E00446C6
:1021B000054B1A700846FFF7D9FA2046FFF740FC96
:1021C000DDF800E001B070475A01002081B0CDF881
:1021D00000E011E00846FFF73DFC16E00846FFF777
:1021E00041FE12E00846FFF759FE0EE00846FFF7F1
:1021F00091FA0AE0012008E00028EBD00128EDD098
:102200002028EFD03028F1D0F4E7DDF800E001B06D
:102210007047FFFF81B01548006840F00101134886
:1022200001601349134801601048016812480140D9
:102230000E4801600D4801686FF4802001400B4892
:1022400001600C4801686FF4FE000140094801601C
:10225000064801686FF0A0500140044801604FF04B
:1022600000010648016001B0704700BF0010024045
:102270000000FFF004100240FFFFF6FE2C100240A9
:1022800081B0CDF800E0534A53495448FFF772FF3C
:10229000FFF7F2FE524A53495348FFF783FEFFF718
:1022A000EBFEFFF7BBFE51490860FFF7E5FE504823
:1022B0000121FFF705FF4948B0F900004D49FFF73C
:1022C00039FE01214B48FFF7FBFE4B480121FFF788
:1022D000F7FE4A480121FFF7F3FE4348B0F900003A
:1022E0004449FFF727FE01214248FFF7E9FE444831
:1022F0000121FFF7E5FE43480221FFF7E1FE4248D6
:102300000121FFF7DDFE3448B0F900003949FFF73D
:1023100011FE01213748FFF7D3FE3C480121FFF7AA
:10232000CFFE3B480121FFF7CBFE2E48B0F900005D
:102330003049FFF7FFFD01212E48FFF7C1FE354868
:102340000121FFF7BDFE34480121FFF7B9FE274800
:102350000068FFF7EDFE00B22649FFF7EBFD012113
:102360002448FFF7ADFE2D480221FFF7A9FE2C48B7
:102370000121FFF7A5FE1748B0F900001D49FFF73E
:10238000D9FD01211B48FFF79BFE26480121FFF7DD
:1023900097FE25480121FFF793FE1148B0F9000090
:1023A0001449FFF7C7FD01211248FFF789FE1F48B6
:1023B0000121FFF785FE1E480221FFF781FE1D481F
:1023C0000221FFF77DFEFFF763FEDDF800E001B0BC
:1023D000704700BF52010020500100204201002040
:1023E0005801002056010020540100205C0100200B
:1023F0006900002074000020830000208900002074
:102400009300002097000020A9000020B4000020C5
:10241000BA000020C4000020CA000020D100002023
:10242000D7000020E2000020E8000020F200002099
:10243000F60000200801002081B0CDF800E06922FC
:1024400014491548FFF7B0FEFFF716FE80216B20F8
:10245000FFF758FDFFF728FE00216B20FFF752FD24
:10246000FFF722FE78212320FFF74CFDFFF71CFE2B
:1024700010213820FFF746FDFFF716FE074802211E
:10248000FFF71EFE06480221FFF71AFEDDF800E006
:1024900001B07047182A00009C29000000000020AD
:1024A0002F00002081B0CDF800E00122072100209C
:1024B000FFF792FD074801460020FFF70BFD42F2AF
:1024C00080510120FFF782FEFFF7D6FDDDF800E026
:1024D00001B070477420000081B01CF8019B0BF81C
:1024E000019BBBEB0A0FF8D101B0704781B04FF0F0
:1024F00000094FF0000CBDEB0A0F04DCBDEB0B0F25
:1025000001DBD446EA464BF8049BBBEB0A0FFAD139
:10251000BCEB0A0F05DDE246D9F800B00BF1040B65
:10252000F1E701B07047FFFF81B002490248016046
:1025300001B07047401901006401002081B0FEE73E
:1025400001B0704781B0CDF800E0464A464B474C99
:1025500047494BF68030814206D94648006840F032
:1025600002014448016011E045F6C050814206D99D
:102570004048006840F001013E48016006E03D48E7
:1025800001686FF0070001403A480160FFF742FE22
:102590003948036039480460394802EA0001394883
:1025A000016002F0010040B119463648006800F0B1
:1025B0000200002800D1F8E700E0194602F480305C
:1025C00040B10B462F48006800F40030002800D1CD
:1025D000F8E700E00B4602F0805068B12948006837
:1025E00040F08051274801602648006800F0005004
:1025F000002800D1F8E7FFE702F0806078B12148B9
:10260000006840F080611F48016011461A461D486D
:10261000006800F00060002800D1F8E701E01146F2
:102620001A4601F0807070B11648006840F0807161
:102630001448016011461348006800F0007000B9AA
:10264000F9E70A46FFE70C48006800F00C0190002B
:1026500000F00C00814200D0F5E7DDF800E001B0A9
:10266000704700BF8100010502841D00440601007F
:102670004019010000200240041002402C100240CA
:10268000FFFF0F0000100240FFF75CFF00F01AFA96
:10269000FFF74AFF00F0C8F9FFF704FFFFF7CCFE91
:1026A000FFF7EEFDFCE7FEE720202020202041631D
:1026B00063656C202020202020202020202020471F
:1026C00079726F2020202020202020202020546597
:1026D0006D702E20B043002D2D2D2D2D2D2D2D2D47
:1026E0002D2D2D2D2D2D2D2D2D2D2D2D2D2D2D2D1A
:1026F0002D2D2D2D2D2D2D2D2D2D2D2D2D2D2D2D0A
:102700002D2D2D2D2D2D2D2D2D2D2D2D2D2D2D2DF9
:102710000020416363656C2058203A0000000000EF
:10272000000000000000000000000020207C2020AD
:1027300000204779726F2058203A0020202A002A72
:102740002A2A2A2A2A2A2A2A2A2A2A2A2A2A2A2AE9
:102750000020416363656C2059203A0020207C20D2
:102760002000204779726F2059203A0020202A202B
:10277000200054656D702E3A00B0202A20200020E1
:10278000416363656C205A203A0020207C202000A1
:10279000204779726F205A203A0020202A002A2AE6
:1027A0002A2A2A2A2A2A2A2A2A2A2A2A2A2A2A00B3
:1027B0002D2D2D2D2D2D2D2D2D2D2D2D2D2D2D2D49
:1027C0002D2D2D2D2D2D2D2D2D2D2D2D2D2D2D2D39
:1027D0002D2D2D2D2D2D2D2D2D2D2D2D2D2D2D2D29
:1027E0002D2D2D2D2D2D2D2D2D00FFFF090000004D
:1027F0000A000000FFFFFFFF0000000000000000D3
:1028000000000000000000000000000000000000C8
:1028100000000000000000000000000000000000B8
:102820001808000018000000000000000000000070
:102830000000000000000000000000000000000098
:102840000000000000000000000000000000000088
:102850000000000004000000350000003600000009
:10286000FFFFFFFF0000000000000000000000006C
:102870000000000000000000000000000000000058
:102880000000000000000000000000001808000028
:102890001800000000000000000000000000000020
:1028A0000000000000000000000000000000000028
:1028B0000000000000000000000000000000000018
:1028C000080000081600000017000000FFFFFFFFCF
:1028D00000000000000000000000000000000000F8
:1028E00000000000000000000000000000000000E8
:1028F0000000000000000000280800002808000078
:1029000000000000000000000000000000000000C7
:1029100000000000000000000000000000000000B7
:1029200000000000000000000000000002000000A5
:102930003800000039000000FFFFFFFF000000002A
:102940000000000000000000000000000000000087
:102950000000000000000000000000000000000077
:10296000000000001808000018000000000000002F
:102970000000000000000000000000000000000057
:102980000000000000000000000000000000000047
:10299000000000000000000030001408F1060000F4
:1029A000E5060000D9060000FD0600002107000032
:1029B0001507000009070000CD0600009106000081
:1029C0009D06000085060000C1060000FFFFFFFF16
:1029D000FFFFFFFFFFFFFFFFFFFFFFFFFFFFFFFF07
:1029E000FFFFFFFFFFFFFFFFFFFFFFFFFFFFFFFFF7
:1029F000FFFFFFFFFFFFFFFFFFFFFFFF00000000E3
:102A00000102030401020304060708090000000094
:102A1000000000000000000061160000B115000079
:102A2000810700000204060800B5DFF824B0DFF8D3
:102A300024A0DFF824C0FFF74FFDDFF820B0DFF857
:102A400020A0DFF820C0FFF747FD00BD704700BFA2
:102A50000000002042010020A826000044010020C0
:102A6000500100200C2A0000FFFFFFFFFFFFFFFFC7
:102A7000FFFFFFFFFFFFFFFFFFFFFFFFFFFFFFFF66
:102A8000FFFFFFFFFFFFFFFFFFFFFFFFFFFFFFFF56
:102A9000FFFFFFFFFFFFFFFFFFFFFFFFFFFFFFFF46
:102AA000FFFFFFFFFFFFFFFFFFFFFFFFFFFFFFFF36
:102AB000FFFFFFFFFFFFFFFFFFFFFFFFFFFFFFFF26
:102AC000FFFFFFFF00B5DFF810B0DFF810A0FFF741
:102AD0000DFD00BD704700BF00000020A0010020D8
:00000001FF
