:1000000037EF14F00000000000EF00F000000000E7
:0A0010000000000000000000F3D71C
:0E001C000101E1B102D08B9801D08B88120057
:0E002A000101E1B102D08B9601D08B8612004D
:0E0038000101E1B102D08D9601D08D8612003B
:0E0046000101E1B102D0899401D08984120039
:0E0054000101E1B102D08B9C01D08B8C120017
:0E0062000101E1B102D08B9401D08B84120019
:0E0070000101E1B102D08B9A01D08B8A1200FF
:0E007E000101E1B102D08B9E01D08B8E1200E9
:0E008C000101E1B102D08A9201D08A821200F5
:0E009A000101E1B102D08D9401D08D841200DD
:0E00A8000101E1B102D08F9201D08F821200CF
:0E00B6000101E1B102D08F9401D08F841200BD
:0E00C4000101E1B102D08B9801D08B881200AF
:0E00D2000101E1B102D08B9601D08B861200A5
:0E00E0000101E1B102D08A9401D08A8412009D
:0E00EE000101E1B102D08B9801D08B88120085
:0E00FC000101E1B102D08B9601D08B8612007B
:0E010A000101E1B102D08F9001D08F80120070
:0E0118000101E1B102D08B9A01D08B8A120056
:0E0126000101E1B102D08B9801D08B8812004C
:0E0134000101E1B102D08B9601D08B86120042
:0E0142000101E1B102D08B9201D08B8212003C
:0E0150000101E1B102D08B9A01D08B8A12001E
:0E015E000101E1B102D08D9001D08D80120020
:10016C000F0121B302D00000FBD7E1C11CFF12002C
:0E017C00ACB202D00000FCD7E1C1ADFF120012
:0E018A000101E1B102D08B9001D08B801200F8
:0E0198000101E1B102D0899001D089801200EE
:0E01A6000101E1B102D08A9001D08A801200DE
:0E01B4000101E1B102D08D9201D08D821200C6
:0E01C2000101E1B102D0899801D089881200B4
:0E01D0000101E1B102D08B9801D08B881200A2
:0E01DE000101E1B102D08B9601D08B86120098
:0E01EC000101E1B102D0899201D08982120096
:0E01FA000101E1B102D08B9C01D08B8C120070
:0E0208000101E1B102D08B9E01D08B8E12005D
:0E0216000101E1B102D08B9801D08B8812005B
:0E0224000101E1B102D08B9601D08B86120051
:1002320068B409D01F0E6614016E0150000A03E172
:0A024200010E006E01D0006A1200E8
:10024C00F250026EF29E0500FF6A0150FE6E0050E5
:08025C00FD6E02BEF28E1200DD
:10026400C7B409D01F0EC514016E0150000A03E182
:0A027400010E006E01D0006A1200B6
:0A027E00000E82B6010E006E1200A1
:0A028800000E82B8010E006E120095
:0C029200000E0F0121B3010E006E1200DF
:0A029E00000E84B0010E006E120085
:0A02A800000E82BA010E006E120073
:0A02B200000E82B2010E006E120071
:0A02BC00000E80B0010E006E12006B
:0A02C600000E81B0010E006E120060
:1002D000AECF01F0ABA202D0AB98AB8801C000F06A
:0202E00012000A
:0A02E200000E9EBA010E006E12001D
:1002EC0094C0DDF195C0DEF196C0DFF197C0E0F16E
:1002FC000101DB6BDC6BDC51120802E1DB518E0877
:10030C0008E391DF005201E004D00101DB4BDC2B50
:10031C00F2D70101120EDC5D02E18F0EDB5D03E30F
:10032C007B0E006E26D0668066A022D00001945110
:10033C009511961197111BE00101DD51DE11DF11B2
:10034C00E0110EE16DC1E1FF6EC1E2FF050EE66E3C
:10035C006BC100F06CC101F073DF010E006E09D0AF
:10036C00010E0101DD5F000EDE5BDF5BE05BDCD7C5
:04037C00006A120001
:0A038000000E80B4010E006E1200A2
:0A038A00000E82B0010E006E12009A
:0A039400000EA4BA010E006E120064
:0A039E00000EACB2010E006E12005A
:1003A8001DCF01F00F0122A302D02299228901C09A
:0403B80000F012003F
:0A03BC00000E82B4010E006E120064
:0A03C600000E81B2010E006E12005D
:0A03D000000E82B8010E006E12004C
:0A03DA00000E82BA010E006E120040
:0A03E400000E82B6010E006E12003A
:0A03EE00000E82B8010E006E12002E
:0A03F800000E82BE010E006E12001E
:0A040200000E82BC010E006E120015
:0A040C00000E82B6010E006E120011
:0A041600000E82B8010E006E120005
:0A042000000E82BE010E006E1200F5
:0A042A00000E82BC010E006E1200ED
:0A043400000E84B2010E006E1200EB
:0A043E00000E82B6010E006E1200DF
:0A044800000E80B2010E006E1200DB
:0A045200000E80B8010E006E1200CB
:10045C0094C0DDF195C0DEF196C0DFF197C0E0F1FC
:10046C00A19A6686A1BA20D00001945195119611DB
:10047C00971119E00101DD51DE11DF11E0110CE1E2
:10048C006DC1E1FF6EC1E2FF030EE66E6BC100F0C1
:10049C006CC101F0D5DE08D0010E0101DD5F000E4C
:1004AC00DE5BDF5BE05BDED701016ACFDCF1DB51A9
:1004BC00000A02E1668A01D0669AA19A668894C005
:1004CC00DDF195C0DEF196C0DFF197C0E0F1A1BA85
:1004DC0020D00001945195119611971119E001014A
:1004EC00DD51DE11DF11E0110CE16DC1E1FF6EC1D8
:1004FC00E2FF030EE66E6BC100F06CC101F0A0DEF2
:10050C0008D0010E0101DD5F000EDE5BDF5BE05BFE
:08051C00DED7DCC100F0120083
:10052400A19ADBC16AFF94C0DCF195C0DDF196C0ED
:10053400DEF197C0DFF168A422D000019451951137
:10054400961197111BE00101DC51DD11DE11DF1161
:100554000EE16DC1E1FF6EC1E2FF040EE66E6BC1F8
:1005640000F06CC101F070DE010E006E3BD0010E94
:100574000101DC5F000EDD5BDE5BDF5BDCD794C07A
:10058400DCF195C0DDF196C0DEF197C0DFF1A1BAD0
:1005940022D0000194519511961197111BE001018D
:1005A400DC51DD11DE11DF110EE16DC1E1FF6EC121
:1005B400E2FF040EE66E6BC100F06CC101F044DE94
:1005C400010E006E0FD0010E0101DC5F000EDD5B39
:1005D400DE5BDF5BDCD766BC02D0006A03D06684D6
:0605E400020E006E120081
:1005EA009E96DBC1C9FFF2C0DCF1F3C0DDF1F4C0B5
:1005FA00DEF1F5C0DFF1C7A422D00001F251F311F8
:10060A00F411F5111BE00101DC51DD11DE11DF11DE
:10061A000EE181C1E1FF82C1E2FF040EE66E7FC1F5
:10062A0000F080C101F00DDE010E006E3BD0010E1C
:10063A000101DC5F000EDD5BDE5BDF5BDCD7F2C055
:10064A00DCF1F3C0DDF1F4C0DEF1F5C0DFF19EB6F6
:10065A0022D00001F251F311F411F5111BE001014E
:10066A00DC51DD11DE11DF110EE181C1E1FF82C132
:10067A00E2FF040EE66E7FC100F080C101F0E1DD09
:10068A00010E006E0FD0010E0101DC5F000EDD5B72
:10069A00DE5BDF5BDCD7C5BC02D0006A03D0C58451
:0606AA00020E006E1200BA
:0A06B000000E82B8010E006E120069
:1006BA00F2C0DDF1F3C0DEF1F4C0DFF1F5C0E0F124
:1006CA009E96C5869EB620D00001F251F311F41110
:1006DA00F51119E00101DD51DE11DF11E0110CE124
:1006EA0081C1E1FF82C1E2FF030EE66E7FC100F025
:1006FA0080C101F0A6DD08D0010E0101DD5F000E08
:10070A00DE5BDF5BE05BDED70101C9CFDCF1DB51E9
:10071A00000A02E1C58A01D0C59A9E96C588F2C030
:10072A00DDF1F3C0DEF1F4C0DFF1F5C0E0F19EB611
:10073A0020D00001F251F311F411F51119E0010171
:10074A00DD51DE11DF11E0110CE181C1E1FF82C14F
:10075A00E2FF030EE66E7FC100F080C101F071DD99
:10076A0008D0010E0101DD5F000EDE5BDF5BE05B9E
:08077A00DED7DCC100F0120023
:040782006684120077
:10078600F2C0DDF1F3C0DEF1F4C0DFF1F5C0E0F157
:100796000101DB6BDC6BDC51120802E1DB518E08D8
:1007A60008E35DDD005201E004D00101DB4BDC2BE8
:1007B600F2D70101120EDC5D02E18F0EDB5D03E371
:1007C6007B0E006E26D0C580C5A022D00001F25156
:1007D600F311F411F5111BE00101DD51DE11DF11FA
:1007E600E0110EE181C1E1FF82C1E2FF050EE66E76
:1007F6007FC100F080C101F026DD010E006E09D038
:10080600010E0101DD5F000EDE5BDF5BE05BDCD726
:04081600006A120062
:10081A0094C0DBF195C0DCF196C0DDF197C0DEF142
:10082A00668266A220D00001945195119611971103
:10083A0019E00101DB51DC11DD11DE110CE16DC1A2
:10084A00E1FF6EC1E2FF060EE66E6BC100F06CC1FD
:10085A0001F0F7DC08D0010E0101DB5F000EDC5B62
:08086A00DD5BDE5BDED712004E
:10087200F2C0DBF1F3C0DCF1F4C0DDF1F5C0DEF172
:10088200C582C5A220D00001F251F311F411F51175
:1008920019E00101DB51DC11DD11DE110CE181C136
:1008A200E1FF82C1E2FF060EE66E7FC100F080C169
:1008B20001F0CBDC08D0010E0101DB5F000EDC5B36
:0808C200DD5BDE5BDED71200F6
:0408CA00C5841200CF
:0A08CE00000E82B8010E006E120049
:0A08D800000E82BA010E006E12003D
:0A08E200000E82B6010E006E120037
:0A08EC00000E84B6010E006E12002B
:0A08F600000E84B4010E006E120023
:0A090000000E86B2010E006E120018
:0A090A00000E82B6010E006E12000E
:0A091400000E86B4010E006E120002
:0A091E00000E86B0010E006E1200FC
:0A092800000E81B4010E006E1200F3
:100932000B840BAEA4EF04F0010E036E026A016A8F
:0A094200006A0A360232FF0E1200AE
:0E094C00026A016A006A086A036A000E12005D
:08095A000AAE029E000E12001D
:100962000101D16BD26B91C100F092C101F06DDC3B
:1009720000C0D1F1000E0101D26FD1C100F0D2C18D
:0409820001F012006E
:100986000B820BAECDEF04F00368026801680068C5
:080996000A360232FF0E1200C6
:10099E000101D96BDA6BD2C1D7F1D3C1D8F1D1C174
:1009AE0000F00036009000808FC1E1FF90C1E2FFA1
:1009BE0000C0E6FF8DC100F08EC101F040DC00509A
:1009CE000101D913000EDA13010ED45F000ED55BB0
:1009DE00D451D51115E0A3C1E1FFA4C1E2FF010E70
:1009EE00E66EA1C100F0A2C101F029DCD7C1E1FF82
:1009FE00D8C1E2FF00C0E6FF0101D74BD82BE4D7E8
:100A0E00A3C1E1FFA4C1E2FFE66AA1C100F0A2C149
:100A1E0001F015DCD7C1E1FFD8C1E2FF00C0E6FF4F
:100A2E000101D651000A05E195C100F096C101F011
:100A3E0006DC0101D651010A06E189C100F08AC126
:100A4E0001F026EC01F0D9C100F0DAC101F012007C
:100A5E00090E0B6E1E0E0C6EE40E0D6E0D2EFED7D5
:0C0A6E000C2EFCD70B2EFAD70000120053
:100A7A000101D96BDA6BD2C1D7F1D3C1D8F1D1C197
:100A8A0000F0003600908FC1E1FF90C1E2FF00C084
:100A9A00E6FF8DC100F08EC101F026EC01F0005096
:100AAA000101D913000EDA13D4C100F0D5C101F047
:100ABA00010ED45F000ED55B0050011018E08FC103
:100ACA00E1FF90C1E2FFD7C1E9FFD8C1EAFFEECF4B
:100ADA00E6FF8DC100F08EC101F026EC01F0005056
:100AEA000101D913000EDA13D74BD82BDDD7D65113
:100AFA00000A06E195C100F096C101F026EC01F06A
:100B0A000101D651010A06E189C100F08AC101F04A
:0E0B1A0026EC01F0D9C100F0DAC101F01200A2
:100B2800086A096A100E0C6E01340836093604503A
:100B3800085E0550D8A0053C095ED8B007D004501F
:100B480008260550D8B0053C0926D890003601364D
:060B58000C2EEAD712008A
:100B5E007C0E0101A56F010EA66FE10EA76F010EAF
:100B6E00A86FD00EA96F020EAA6F000EAB6F000E0B
:100B7E00AC6FE20E9D6F020E9E6F000E9F6F000E09
:100B8E00A06F9E0E996F030E9A6F000E9B6F000E54
:100B9E009C6FAC8A900EAB6E948E949C9EAA03D0E2
:080BAE00AECF00F0FBD71200EE
:100BB6000C6A0E6A0250D8A4F4EF05F001C002F0E8
:100BC60000C001F0006A0E860250D8A4F4EF05F0CA
:100BD60001C002F0016A0E960E880250D8B406EFE4
:100BE60006F00E50035ED8A4D8A00BEF06F0D890FE
:100BF60002BE10EF06F0003601360236032EFBEF7A
:100C060005F00BEF06F0010E0C6E9DDE13EF06F0FD
:100C1600020E0C6E8BDE13EF06F0040E0C6E9ADEDF
:020C26001200BA
:100C2800640E0101676F020E686F000E696F000E97
:100C38006A6F860E636F070E646F000E656F000E95
:100C4800666F720E6F6F080E706F000E716F000E78
:100C5800726FBA0E7B6F060E7C6FDB0E7D6F010E16
:100C68007E6FEA0E776F050E786FDB0E796F010ED7
:100C78007A6FCA0E736F080E746F000E756F000ED0
:100C8800766F949894968B988B9694889486C79E42
:080C9800C79C380EC66E120065
:100CA000CDC1CEF15EDEBBC1D1F1CE0ED26F010E51
:100CB000D36F010ED46F000ED56F010ED66FDDDE3F
:100CC000CEDEBBC1D1F1CF0E0101D26F010ED36FC9
:100CD000010ED46F000ED56FD66B61DEC0DECFC1C2
:040CE00000F012000E
:100CE4006C0E0101A56F010EA66FE10EA76F010E38
:100CF400A86FA80EA96F030EAA6F000EAB6F000EAB
:100D0400AC6F940E9D6F030E9E6F000E9F6F000ECE
:100D1400A06F920E996F020E9A6F000E9B6F000ED9
:100D24009C6F0F01218B900E226F98849892A4AA35
:0A0D340003D01DCF00F0FBD7120022
:080D3E000B6A0B86FF0E120088
:100D46000CB0E5EF06F00CA28BEF07F00E6A000E72
:100D56000264FCEF06F0F00E0214D8A4C7EF06F00A
:100D6600023A01380F0B02260138F00B016E0038EB
:100D76000F0B01260038F00B006E08380F0B00260B
:100D86000838F00B086E0E84D89002BEE0EF06F02D
:100D960008360036013602360E2A02BEE0EF06F0AD
:100DA60008360036013602360E2A02BEE0EF06F09D
:100DB60008360036013602360E2A0E50036481EFDD
:100DC60007F0035E0BBC08AE86EF07F0D880800EF6
:100DD60008640030000E002201220222D8A086EF0D
:100DE60007F0023201320032034A8BEF07F086EF3A
:100DF60007F001C002F000C001F008C000F0086A68
:100E0600000E0E86026433EF07F0F00E0214D8A42B
:100E16001BEF07F0023A01380F0B02260138F00BE0
:100E2600016E00380F0B01260038F00B006E0E84A1
:100E3600D89002BEE0EF06F00036013602360E2AE2
:100E460002BEE0EF06F00036013602360E2A02BE7A
:100E5600E0EF06F00036013602360E2AE0EF06F025
:100E660001C002F000C001F0006A000E0E960E8866
:100E7600026460EF07F0F00E0214D8A44BEF07F0FF
:100E8600023A01380F0B02260138F00B016E0E8470
:100E9600D89002BEE0EF06F0013602360E2A02BEF8
:100EA600E0EF06F0013602360E2A02BEE0EF06F04B
:100EB600013602360E2AE0EF06F001C002F0016AA2
:100EC600000E0E86026490EF07F0F00E0214D8A40E
:100ED6006FEF07F0023A0E84D89002BEE0EF06F0FC
:100EE60002360E2A02BEE0EF06F002360E2A02BED7
:100EF600E0EF06F002360E2AE0EF06F0010E0C6E69
:100F060015DD93EF07F0020E0C6E24DD93EF07F06C
:100F1600040E0C6E35DD93EF07F0080E0C6E13DD34
:020F26001200B7
:100F280021D0CF0EAF6EAC9416DE6BD0670EAF6ECD
:100F3800AC9411DE66D0CF0EAF6EAC840CDE61D0FF
:100F4800670EAF6EAC8407DE5CD0440EAF6EAC8427
:100F580002DE57D0220EAF6EAC84FDDD52D0060EF5
:100F6800006E58D00101000E006EC91908E100504A
:100F7800C81905E1120EC71902E1C651C00AD1E02D
:100F8800000E006EC91908E10050C81905E1250EC8
:100F9800C71902E1C651800AC9E0000E006EC919DE
:100FA80008E10050C81905E14B0EC71902E1C65106
:100FB800000AC1E0000E006EC91908E10050C81906
:100FC80005E1960EC71902E1C651000AB9E0000E04
:100FD800006EC91908E10050C81905E1E10EC719EA
:100FE80002E1C651000AB1E0C951000A08E1C8513E
:100FF800010A05E1C751C20A02E1C651000AAAE086
:10100800AED77C0E836F010E846FE10E856F010EE3
:06101800866F006A120061
:10101E00C6C1C9F1C7C1CAF1C8C1CBF10BD0A00E70
:10102E00C86EFBDD44D0280EC86EF7DD40D0040E2E
:10103E00006E3FD0C9C1F6FFCAC1F7FFCBC1F8FFA2
:10104E000900F5CF01F00900F5CF02F00900F5CF48
:10105E0003F00900F5CF04F00450000A08E1035034
:10106E00010A05E10250860A02E10150A00AD7E00A
:10107E00C9C1F6FFCAC1F7FFCBC1F8FF0900F5CF12
:10108E0001F00900F5CF02F00900F5CF03F00900D9
:10109E00F5CF04F00450000A08E10350060A05E1FA
:1010AE0002501A0A02E10150800ABDE0C0D7000EBC
:0410BE00006E1200AE
:1010C20085C1E1FF86C1E2FFC6C1E9FFC7C1EAFFF0
:1010D200EECFE6FF83C100F084C101F026EC01F0FF
:0410E200006A12008E
:1010E60038D00F0120870D0E1F6F040E1E6F21854D
:1010F600F6DD7ED00F012087060E1F6F820E1E6F53
:101106002185EDDD75D00F012087030E1F6F400E80
:101116001E6F2185E4DD6CD00F012087010E1F6F45
:10112600A00E1E6F2185DBDD63D00F012087010E27
:101136001F6F150E1E6F2185D2DD5AD00F01208735
:101146001F6B8A0E1E6F2185CADD52D0060E006EF9
:1011560059D0000E006E0101C91908E10050C819E6
:1011660005E1120EC71902E1C651C00ABAE0000E27
:10117600006EC91908E10050C81905E1250EC71906
:1011860002E1C651800AB6E0000E006EC91908E1F8
:101196000050C81905E14B0EC71902E1C651000AF5
:1011A600B2E0000E006EC91908E10050C81905E149
:1011B600960EC71902E1C651000AAEE0000E006E97
:1011C600C91908E10050C81905E1E10EC71902E185
:1011D600C651000AAAE0C951000A08E1C851010A2D
:1011E60005E1C751C20A02E1C651000AA7E0AED71F
:1011F60001016C0E836F010E846FE10E856F010E87
:06120600866F006A120071
:10120C0021D0CF0EAF6EAC94A4DC6BD0670EAF6E5A
:10121C00AC949FDC66D0CF0EAF6EAC849ADC61D000
:10122C00670EAF6EAC8495DC5CD0440EAF6EAC84B4
:10123C0090DC57D0220EAF6EAC848BDC52D0060EF5
:10124C00006E58D00101000E006EC91908E1005063
:10125C00C81905E1120EC71902E1C651C00AD1E046
:10126C00000E006EC91908E10050C81905E1250EE1
:10127C00C71902E1C651800AC9E0000E006EC919F7
:10128C0008E10050C81905E14B0EC71902E1C6511F
:10129C00000AC1E0000E006EC91908E10050C8191F
:1012AC0005E1960EC71902E1C651000AB9E0000E1D
:1012BC00006EC91908E10050C81905E1E10EC71903
:1012CC0002E1C651000AB1E0C951000A08E1C85157
:1012DC00010A05E1C751C20A02E1C651000AAAE09F
:1012EC00AED77C0E836F010E846FE10E856F010EFD
:0612FC00866F006A12007B
:1013020021D0CF0EAF6EAC9429DC6BD0670EAF6EDE
:10131200AC9424DC66D0CF0EAF6EAC841FDC61D0FF
:10132200670EAF6EAC841ADC5CD0440EAF6EAC8438
:1013320015DC57D0220EAF6EAC8410DC52D0060EF4
:10134200006E58D00101000E006EC91908E100506C
:10135200C81905E1120EC71902E1C651C00AD1E04F
:10136200000E006EC91908E10050C81905E1250EEA
:10137200C71902E1C651800AC9E0000E006EC91900
:1013820008E10050C81905E14B0EC71902E1C65128
:10139200000AC1E0000E006EC91908E10050C81928
:1013A20005E1960EC71902E1C651000AB9E0000E26
:1013B200006EC91908E10050C81905E1E10EC7190C
:1013C20002E1C651000AB1E0C951000A08E1C85160
:1013D200010A05E1C751C20A02E1C651000AAAE0A8
:1013E200AED77C0E836F010E846FE10E856F010E06
:0613F200866F006A120084
:1013F800C6C1F6FFC7C1F7FFC8C1F8FF0900F5CF9E
:1014080091F10900F5CF92F10900F5CF93F10900A8
:10141800F5CF94F1040E0101C625F66E000EC72122
:10142800F76E000EC821F86E0900F5CF95F1090096
:10143800F5CF96F10900F5CF97F10900F5CF98F1AE
:10144800080EC625F66E000EC721F76E000EC821DD
:10145800F86E0900F5CF89F10900F5CF8AF1090086
:10146800F5CF8BF10900F5CF8CF10C0EC625F66E81
:10147800000EC721F76E000EC821F86E0900F5CFDF
:101488008DF10900F5CF8EF10900F5CF8FF1090034
:10149800F5CF90F1100EC625F66E000EC721F76E37
:1014A800000EC821F86E0900F5CFA1F10900F5CFAB
:1014B800A2F10900F5CFA3F10900F5CFA4F11200BC
:1014C800C6C1C9F1C7C1CAF1C8C1CBF10DD0A00EC0
:1014D800C86E14EC06F045D0280EC86E14EC06F061
:1014E80040D0040E006E3FD0C9C1F6FFCAC1F7FF55
:1014F800CBC1F8FF0900F5CF01F00900F5CF02F0E4
:101508000900F5CF03F00900F5CF04F00450000AF4
:1015180008E10350010A05E10250860A02E1015080
:10152800A00AD5E0C9C1F6FFCAC1F7FFCBC1F8FFD1
:101538000900F5CF01F00900F5CF02F00900F5CF59
:1015480003F00900F5CF04F00450000A08E1035045
:10155800060A05E102501A0A02E10150800ABCE0BD
:08156800C0D7000E006E120056
:10157000300E0101C625006E000EC721016E000E5F
:10158000C821026E1C0E0024F66E000E0120F76EBC
:10159000000E0220F86E0900F5CFB7F10900F5CF73
:1015A000B8F10900F5CFB9F10900F5CFBAF1120091
:1015B00059D00101C7B102D0929201D092820F019D
:1015C000259376D00101C7B102D0929801D09288BC
:1015D0006FD00101C7B102D0969201D0968268D037
:1015E0000101C7B102D0949601D0948661D0010167
:1015F000C7B102D0949801D094885AD00101C7B1E4
:1016000002D0949A01D0948A53D00101C7B102D07C
:10161000949401D094844CD00101C7B102D093922C
:1016200001D0938245D00101C7B102D0949E01D070
:10163000948E3ED00101C7B102D0949C01D0948C0D
:1016400037D00101C7B102D0949601D0948630D032
:101650000101C7B102D0949801D0948829D0010E1D
:10166000006E28D00101C651000AA3E0C651010A4C
:10167000A9E0C651020AADE0C651030AB1E0C65165
:10168000040AB5E0C651050AB9E0C651060ABDE034
:10169000C651070AC1E0C651080AC5E0C651090A89
:1016A000C9E0C6510A0ACDE0C6510B0AD1E0D7D72E
:0616B000000E006E1200A6
:1016B6000101CA6B050ECA5D0AE2CA51C825E16E70
:1016C600000EC921E26E200EE66ECA2BF3D7CA5170
:1016D600C825E16E000EC921E26EE66ACA07CA5144
:1016E600C825CB6F000EC921CC6F0A0E046E000E02
:1016F600056EC6C100F0C7C101F094EC05F008C044
:1017060000F009C001F0300E0026CBC1E1FFCCC1CC
:10171600E2FF00C0E6FF0A0E046E000E056EC6C1AB
:1017260000F0C7C101F094EC05F000C0C6F101C09D
:10173600C7F1000E011802E1000E001801E102D007
:06174600CA07CDD7120016
:10174C005DD00101C7B102D0929401D092840F01F7
:10175C0025957AD00101C7B102D0969601D0968614
:10176C0073D00101C7B102D0969401D096846CD08D
:10177C000101C7B102D0949601D0948665D00101C5
:10178C00C7B102D0949801D094885ED00101C7B142
:10179C0002D0949A01D0948A57D00101C7B102D0DB
:1017AC00989001D0988050D00101C7B102D0939489
:1017BC0001D0938449D00101C7B102D0989401D0D3
:1017CC0098840F01239540D00101C7B102D09892A3
:1017DC0001D098820F01239337D00101C7B102D0F9
:1017EC00949601D0948630D00101C7B102D0949860
:1017FC0001D0948829D0010E006E28D00101C65169
:10180C00000A9FE0C651010AA5E0C651020AA9E0F0
:10181C00C651030AADE0C651040AB1E0C651050A2F
:10182C00B5E0C651060AB9E0C651070ABDE0C6517B
:10183C00080AC1E0C651090AC7E0C6510A0ACDE040
:0E184C00C6510B0AD1E0D7D7000E006E120075
:10185A0059D00101C7B102D0929001D092800F01F4
:10186A00259176D00101C7B102D0949001D094801D
:10187A006FD00101C7B102D0969001D0968068D08E
:10188A000101C7B102D0949601D0948661D00101BA
:10189A00C7B102D0949801D094885AD00101C7B137
:1018AA0002D0949A01D0948A53D00101C7B102D0D0
:1018BA00949201D094824CD00101C7B102D0939086
:1018CA0001D0938045D00101C7B102D0949E01D0C6
:1018DA00948E3ED00101C7B102D0949C01D0948C61
:1018EA0037D00101C7B102D0949601D0948630D086
:1018FA000101C7B102D0949801D0948829D0010E71
:10190A00006E28D00101C651000AA3E0C651010A9F
:10191A00A9E0C651020AADE0C651030AB1E0C651B8
:10192A00040AB5E0C651050AB9E0C651060ABDE087
:10193A00C651070AC1E0C651080AC5E0C651090ADC
:10194A00C9E0C6510A0ACDE0C6510B0AD1E0D7D781
:06195A00000E006E1200F9
:101960000450000A12E10550000A0FE10650000A77
:101970000CE10750000A09E1FF0E006EFF0E016E38
:101980007F0E026EFF0E036EA8D0086A096A075028
:10199000D8B45BEF0DF00350D8B460EF0DF00250F7
:1019A00006180A6E028E068E0E6A02C008F001C08A
:1019B0000CF000C00DF004500D5E0550D8A0053CA1
:1019C0000C5E0650D8A0063C085E086A0C6A0D6AD8
:1019D000D8A0F2EF0CF0D890023201320032083277
:1019E000010E0E6E0750035ED8A0FFEF0CF07E0EC6
:1019F0000E240326D8B065EF0DF005EF0DF07E0E36
:101A00000E240326D8A06AEF0DF0180E0B6E0D36CB
:101A10000C3608360036013602360E360450005EAB
:101A20000550D8A0053C015E0650D8A0063C025ED9
:101A300006340E120EA020EF0DF00D802BEF0DF0EE
:101A4000045000260550D8B0053C01260650D8B0F9
:101A5000062802260D900B2E07EF0DF051EF0DF02A
:101A6000D8900036013602360E360450005E05501E
:101A7000D8A0053C015E0650D8A0063C025E0634A4
:101A80000E10010B0D26D8B00C2AD8B4082AD8A401
:101A900051EF0DF008320C320D32032AD8B465EF45
:101AA0000DF00AAE089E0850026E0C50016E0D50EB
:101AB000006E6DEF0DF0010E9FEC06F06DEF0DF076
:101AC000020EA6EC04F06DEF0DF0040EC3EC04F072
:0C1AD0006DEF0DF0080E99EC04F0120010
:101ADC00025006180E6E086A096A0B6A03500764F6
:101AEC0061EF0EF006500A6E068E028E03500B6EDE
:101AFC000750036E000E0B64B1EF0DF00B50075E38
:101B0C00D8B452EF0EF0070E076420EF0EF0075E0C
:101B1C0000C008F001C000F002C001F0026A074EDC
:101B2C0052EF0EF00764F5EF0DF0075E00C008F001
:101B3C0001C000F0016A074E52EF0EF00764D3EFBC
:101B4C000DF0075E00C008F0006A074E52EF0EF071
:101B5C000764BAEF0DF00AC002F005C001F004C032
:101B6C0000F0086A7EEF0FF0030E0764C5EF0DF06E
:101B7C00075E08380F0B086E074E52EF0EF0D89028
:101B8C000832074E52EF0EF0D8900832074E52EF43
:101B9C000EF0D890083252EF0EF0030E0764E4EF0B
:101BAC000DF0075E08380F0B086E0038F00B082696
:101BBC0000380F0B006E074E52EF0EF0D89000322B
:101BCC000832074E52EF0EF0D89000320832074E12
:101BDC0052EF0EF0D8900032083252EF0EF0030E96
:101BEC0007640CEF0EF0075E08380F0B086E003818
:101BFC00F00B082600380F0B006E0138F00B002696
:101C0C0001380F0B016E074E52EF0EF0D8900132D7
:101C1C0000320832074E52EF0EF0D89001320032EB
:101C2C000832074E52EF0EF0D890013200320832D3
:101C3C0052EF0EF0030E07643DEF0EF0075E08380E
:101C4C000F0B086E0038F00B082600380F0B006ED7
:101C5C000138F00B002601380F0B016E0238F00B27
:101C6C00012602380F0B026E074E52EF0EF0D89081
:101C7C000232013200320832074E52EF0EF0D89089
:101C8C000232013200320832074E52EF0EF0D89079
:101C9C000232013200320832096A000E0EAE46EFF3
:101CAC000FF0081E001E011E021E082A002201222F
:101CBC00022246EF0FF00750D8A467EF0EF07EEF2C
:101CCC000FF0096A02C00AF0028E068E0750035C00
:101CDC00076ED8B439EF0FF0070E076407EF0FF05B
:101CEC00075E0450096E0550046E0650056E066AB8
:101CFC00074E39EF0FF0070E0764DCEF0EF0075EAE
:101D0C000450096E0550046E056A074E39EF0FF04A
:101D1C00070E0764BAEF0EF0075E0450096E046AF2
:101D2C00074E39EF0FF0070E0764A1EF0EF00AC053
:101D3C0002F07EEF0FF0030E0764ACEF0EF0075EBF
:101D4C0009380F0B096E074E39EF0FF0D890093296
:101D5C00074E39EF0FF0D8900932074E39EF0FF0DC
:101D6C00D890093239EF0FF0030E0764CBEF0EF069
:101D7C00075E09380F0B096E0438F00B092604387E
:101D8C000F0B046E074E39EF0FF0D8900432093266
:101D9C00074E39EF0FF0D89004320932074E39EF65
:101DAC000FF0D8900432093239EF0FF0030E0764AC
:101DBC00F3EF0EF0075E09380F0B096E0438F00BC9
:101DCC00092604380F0B046E0538F00B0426053871
:101DDC000F0B056E074E39EF0FF0D8900532043219
:101DEC000932074E39EF0FF0D89005320432093220
:101DFC00074E39EF0FF0D89005320432093239EF23
:101E0C000FF0030E076424EF0FF0075E09380F0B79
:101E1C00096E0438F00B092604380F0B046E0538D4
:101E2C00F00B042605380F0B056E0638F00B052653
:101E3C0006380F0B066E074E39EF0FF0D8900632AE
:101E4C00053204320932074E39EF0FF0D8900632C2
:101E5C00053204320932074E39EF0FF0D8900632B2
:101E6C00053204320932086A000E0EAE46EF0FF04E
:101E7C00091E041E051E061E092A0422052206221E
:101E8C000950082604500022055001220650022257
:101E9C000EBE5DEF0FF0D8A06CEF0FF002320132E6
:101EAC0000320832033E6CEF0FF078EF0FF0D8B031
:101EBC0072EF0FF0000E081E001E011E021E082AF3
:101ECC000022012202220A7E72EF0FF0010E0C6E2C
:101EDC00A3EC06F080EF0FF0020E0C6EA3EC06F0F4
:101EEC0080EF0FF0040E0C6EC3EC04F080EF0FF0DB
:061EFC00000E0C6E120046
:101F0200C6C1CDF150EC06F000C0C9F10101C651C5
:101F1200010FCD6F50EC06F000C0CAF1C9C1C7F184
:101F2200000E0101C86FC7C103F0026A02C0C7F107
:101F320003C0C8F1000E016E0250001203500112DC
:0A1F420000C0C7F101C0C8F1120091
:101F4C0000C008F00150006E016A026A036A0B6A55
:101F5C000C6A016A026A036A960E036E0A6A00AE84
:101F6C00BEEF0FF0081E001E082AD8B4002A0A8EF5
:101F7C0000C001F008C000F0086A026ADBEC05F052
:021F8C00120041
:101F8E000B800BAED3EF0FF0026A0AAEFF0E026E9D
:0C1F9E00016E006E0A360232FF0E1200C7
:101FAA00C6C1C9F1C7C1CAF1C8C1CBF10DD0A00ED3
:101FBA00C86E14EC06F045D0280EC86E14EC06F074
:101FCA0040D0040E006E3FD0C9C1F6FFCAC1F7FF68
:101FDA00CBC1F8FF0900F5CF01F00900F5CF02F0F7
:101FEA000900F5CF03F00900F5CF04F00450000A08
:101FFA0008E10350010A05E10250860A02E1015094
:10200A00A00AD5E0C9C1F6FFCAC1F7FFCBC1F8FFE4
:10201A000900F5CF01F00900F5CF02F00900F5CF6C
:10202A0003F00900F5CF04F00450000A08E1035058
:10203A00060A05E102501A0A02E10150800ABCE0D0
:08204A00C0D7000E006E120069
:102052002FD0BDC1C6F1BEC1C7F1BFC1C8F1C0C159
:10206200C9F106EC09F032D0BDC1C6F1BEC1C7F15B
:10207200BFC1C8F1C0C1C9F194EC07F027D0BDC1FE
:10208200C6F1BEC1C7F1BFC1C8F1C0C1C9F173EC8D
:1020920008F01CD0BDC1C6F1BEC1C7F1BFC1C8F1B5
:1020A200C0C1C9F181EC09F011D0010E006E0ED051
:1020B2000101BC51000ACDE0BC51010AD5E0BC517E
:0E20C200020ADDE0BC51100AE5E0EFD7120083
:1020D0001DD0BDC1C6F1BEC1C7F1BFC1C8F165DF2A
:1020E00020D0BDC1C6F1BEC1C7F1BFC1C8F10FEC60
:1020F00008F017D0BDC1C6F1BEC1C7F1BFC1C8F15C
:1021000064EC0AF00ED0010E006E0BD00101BC5140
:10211000000ADFE0BC51010AE4E0BC51020AEAE037
:04212000F2D71200E0
:1021240018D0BDC1C6F1BEC1C7F12DEC0CF01CD056
:10213400BDC1C6F1BEC1C7F1D8EC0AF015D0BDC10E
:10214400C6F1BEC1C7F1A6EC0BF00ED0010E006EB5
:102154000BD00101BC51000AE4E0BC51010AE8E0E3
:0A216400BC51020AECE0F2D71200B1
:10216E000B6A0350D8B4FDEF10F002500A6E028EC7
:10217E008E0E035E03AE01EF11F0036C080E035CCE
:10218E00D8A0DCEF10F0036E013602C001F0026A37
:10219E00080E035CD8A0DCEF10F0036E0136016A66
:1021AE000350D8A4D890E6EF10F00350D8B4E6EF61
:1021BE0010F0D89002320132032EE0EF10F00BBC7B
:1021CE0001A0F3EF10F0D8A0F3EF10F0012AD8B46D
:1021DE00022A02BE10EF11F00AAE15EF11F0021E28
:1021EE00011E012AD8B4022A15EF11F0026A016A03
:1021FE0015EF11F00B800BAE19EF11F0026A0AAE5B
:10220E0019EF11F0FF0E026E016E0A36023219EF4F
:10221E0011F0010E0C6EB4DE1BEF11F0000E0C6E01
:10222E001BEF11F0FF0E0C6E0150006E0250016E8E
:02223E0012008C
:10224000520E0B6E2B0E0C6E000E0D6E0D2EFED769
:0C2250000C2EFCD70B2EFAD70000120059
:10225C003B0E0101C66F4FDEBCC1E1FFBDC1E2FF09
:10226C0000C0E6FF01C0E6FF3D0EC66F44DEBEC1F6
:10227C00E1FFBFC1E2FF00C0E6FF01C0E6FF3F0E79
:10228C00C66F39DEC0C1E1FFC1C1E2FF00C0E6FF8D
:06229C0001C0E6FF120084
:1022A200410E0101CD6F50EC06F000C0BEF1420EAE
:1022B2000101CD6F50EC06F000C0BFF1BEC1BCF110
:1022C200000E0101BD6FBCC103F0026A02C0BCF185
:1022D20003C0BDF1000E016E025000120350011244
:1022E20000C0BCF101C0BDF130DE000E046E000E74
:1022F200056E2A0E066E870E076EB0EC0CF0F60E17
:10230200046E280E056E120E066E840E076E6EECBB
:042312000DF01200B8
:10231600430E0101C66FF2DDBCC1E1FFBDC1E2FFA4
:1023260000C0E6FF01C0E6FF450EC66FE7DDBEC191
:10233600E1FFBFC1E2FF00C0E6FF01C0E6FF470EB6
:10234600C66FDCDDC0C1E1FFC1C1E2FF00C0E6FF30
:0623560001C0E6FF1200C9
:10235C000101C26BC36BBCC1C4F1BDC1C5F1800E20
:10236C00BD19006E800E005C02E1000EBC5D0BE23C
:10237C00010EC26F000EC36FBC510008C46FBDC10B
:10238C00C5F1000EC557C4C1C6F1C5C1C7F1BEC168
:10239C00C8F1BFC1C9F15BEC0BF0060EC06F000EAB
:1023AC00C16F000E006EC151005C02E1C05100080B
:1023BC0019E2C051BE25E16EC151BF21E26E010E82
:1023CC00C05D006E000EC159016E0050BE25E96E55
:1023DC000150BF21EA6EEECFE6FF010EC05F000E8A
:1023EC00C15BDFD7BEC1E1FFBFC1E2FF200EE66ECD
:1023FC00C251C3111AE0C06BC16BC051BE25E96E4E
:10240C00C151BF21EA6EEE50200A03E1C04BC12B33
:10241C00F4D7010EC05F000EC15BC051BE25E16E4A
:0C242C00C151BF21E26E2D0EE66E1200C1
:10243800BCC1BEF1BDC1BFF1B1EC04F0BBC1D1F16B
:10244800BE0ED26F010ED36F020ED46F000ED56F81
:08245800D66B3DEC05F012000B
:10246000C2C1BBF1BFC1C6F1C0C1C7F1C1C1C8F192
:10247000FCEC09F0BCC1C6F1BDC1C7F1BEC1C8F1D9
:06248000B8EC0AF01200A6
:10248600D00E0C6EC90E0D6E0D2EFED70C2EFCD77F
:062496000000000012002E
:10249C00BCC1BFF1BDC1C0F10D0E0101C16F0A0E6F
:1024AC00C26F3AD0BFC1C6F1C0C1C7F161EC08F030
:1024BC003ED0BFC1E9FFC0C1EAFFEE520AE0BFC186
:1024CC00C6F1C0C1C7F161EC08F00101BF4BC02BD4
:1024DC00F0D72DD0BFC1E9FFC0C1EAFFEE520AE030
:1024EC00BFC1C6F1C0C1C7F161EC08F00101BF4B1F
:1024FC00C02BF0D70101C10EC66F010EC76F61EC86
:10250C0008F0C20E0101C66F010EC76F61EC08F036
:10251C000ED0060E006E0CD00101BE51000AC2E0B6
:10252C00BE51010AC6E0BE51020AD4E0F2D7006ADD
:02253C0012008B
:10253E000101BC6B070EBD6F010EBE6FECDD01011C
:10254E00BC6B3A0EBD6F2A0EBE6F000EBF6FB9DDAB
:10255E00010E0101BC6F800EBD6F250EBE6F000E09
:0C256E00BF6FC06F6FDD2FEC05F0120096
:10257A000900F5CFE6FF0006FBE10106F9E11200CA
:10258A00B50E0101BC6F010EBD6FAF0EBE6F010E1D
:10259A00BF6FAD0EC06F010EC16F5BDE2FEC05F091
:1025AA00B30EBC6F010EBD6FB10EBE6F010EBF6FD1
:1025BA00870EC06F010EC16FA9DE2FEC05F06CDE2D
:1025CA0000C05FF101C060F102C061F103C062F1B5
:1025DA002FEC05F0630E0101BC6F000EBD6F010EFA
:1025EA00BE6F57DFB5C1BCF1B6C1BDF1540E0101D2
:1025FA00BE6F000EBF6FADDE540EBC6F000EBD6F16
:10260A00010EBE6F46DF6E0E0101BC6F000EBD6F7C
:10261A00010EBE6F3EDF8A0E0101BC6F000EBD6F58
:10262A00010EBE6F36DFB3C1BCF1B4C1BDF1540EA9
:10263A000101BE6F000EBF6F8CDE540EBC6F000E20
:10264A00BD6F010EBE6F25DF860E0101BC6F000E45
:10265A00BD6F010EBE6F1DDF740E0101BC6F000E4F
:10266A00BD6F020EBE6F15DF490E0101BC6F000E71
:10267A00BD6F010EBE6F0DDFAFC1BCF1B0C1BDF1C0
:10268A00540E0101BE6F000EBF6F63DE540EBC6FA5
:10269A00000EBD6F010EBE6FFCDE250E0101BC6F80
:1026AA00000EBD6F010EBE6FF4DE1B0E0101BC6F82
:1026BA00000EBD6F010EBE6FECDEB1C1BCF1B2C13E
:1026CA00BDF1540E0101BE6F000EBF6F42DE540E03
:1026DA00BC6F000EBD6F010EBE6FDBDE150E010171
:1026EA00BC6F000EBD6F010EBE6FD3DE2B0E010153
:1026FA00BC6F000EBD6F010EBE6FCBDE5FC100F076
:10270A0060C101F061C102F062C103F02BDD00C0BB
:10271A00BCF101C0BDF1540E0101BE6F000EBF6FC6
:10272A0018DE540EBC6F000EBD6F010EBE6FB1DE17
:10273A00430E0101BC6F000EBD6F020EBE6FA9DE13
:10274A00380E0101BC6F000EBD6F010EBE6FA1DE17
:10275A00ADC1BCF1AEC1BDF1540E0101BE6F000E98
:10276A00BF6FF7DD540EBC6F000EBD6F010EBE6F5A
:10277A0090DE320E0101BC6F000EBD6F010EBE6FFE
:10278A0088DEAE0E0101BC6F000EBD6F010EBE6F7A
:10279A0080DE87C1BCF188C1BDF1540E0101BE6F54
:1027AA00000EBF6FD6DD540EBC6F000EBD6F010E5A
:1027BA00BE6F6FDEAA0E0101BC6F000EBD6F010E67
:1027CA00BE6F67DE980E0101BC6F000EBD6F020E70
:1027DA00BE6F5FDEB80E0101BC6F000EBD6F020E48
:0827EA00BE6F57DE28DD12006E
:1027F200C60E0101BC6F290EBD6F000EBE6F260E04
:10280200BF6F2A0EC06F000EC16F690EC26F27DE46
:102812002FEC05F06B0EBC6F800EBD6F0CDE32DE4E
:102822006B0E0101BC6F000EBD6F05DE2BDE230EA9
:102832000101BC6F780EBD6FFEDD24DE380E010192
:10284200BC6F100EBD6FF7DD1DDE300E0101BC6FD7
:10285200010EBD6F020EBE6F20DEF60E0101BC6FCF
:0C286200000EBD6F020EBE6F18DE1200EB
:0E286E001FEC15F065DEBEDF89DEFED7FFD75A
:102A3E0010EE15F04A0E006E020E016E7C0EF66E52
:0E2A4E00280EF76E000EF86EBDEC12F01200AE
:06287C0020202A202000AC
:0A288200204779726F2059203A00B8
:06288C0020207C2020004A
:0728920054656D702E3A0041
:0628990020207C2020003D
:0B289F0020416363656C205A203A0062
:0628AA00B0202A202000EE
:0B28B00020416363656C2059203A0052
:0F28BB000000000000000000000000000000000E
:0B28CA0020416363656C2058203A0039
:0628D50020207C20200001
:1028DB002A2A2A2A2A2A2A2A2A2A2A2A2A2A2A2A4D
:0228EB002A00C1
:0428ED0020202A007D
:0A28F100204779726F2058203A004A
:0428FB0000000000D9
:1028FF002A2A2A2A2A2A2A2A2A2A2A2A2A2A2A2A29
:02290F002A009C
:0429110020202A0058
:0A291500204779726F205A203A0023
:10291F002D2D2D2D2D2D2D2D2D2D2D2D2D2D2D2DD8
:10292F002D2D2D2D2D2D2D2D2D2D2D2D2D2D2D2DC8
:10293F002D2D2D2D2D2D2D2D2D2D2D2D2D2D2D2DB8
:0A294F002D2D2D2D2D2D2D2D2D00E9
:04295900000000007A
:10295D002D2D2D2D2D2D2D2D2D2D2D2D2D2D2D2D9A
:10296D002D2D2D2D2D2D2D2D2D2D2D2D2D2D2D2D8A
:10297D002D2D2D2D2D2D2D2D2D2D2D2D2D2D2D2D7A
:0A298D002D2D2D2D2D2D2D2D2D00AB
:10299700202020202020416363656C2020202020F8
:1029A700202020202020204779726F2020202020FF
:0F29B70020202020202054656D702E20B043007A
:1029C6009801E1018A01E1015E01E1013401E101C1
:1029D6002601E1015001E1014201E101A601E10107
:1029E6000802E101FA01E1012402E1011602E10116
:1029F600BC0200008A0300009E0200007E02000066
:102A060088020000A8020000B2020000C602000010
:102A1600200400002A0400000C0400001604000034
:102A260086070000CA08000072080000EA05DB01FC
:042A3600BA06DB0100
:042A3A00A086010071
:020000040030CA
:0E00000015137F7CF98B91FFFFC0FFE0FF40DE
:00000001FF
